:020000040800F2
:10000000300C0020450100085D03000821030008B2
:100010005903000801020008C3090008000000009D
:10002000000000000000000000000000FD040008C7
:100030000502000800000000050400081106000881
:100040005F0100085F0100085F0100085F01000810
:100050005F0100085F0100085F0100085F01000800
:100060005F0100085F0100085F0100085F010008F0
:100070005F0100085F0100085F0100085F010008E0
:100080005F0100085F0100085F0100085F010008D0
:100090005F0100085F0100085F0100085F010008C0
:1000A0005F0100085F0100085F0100085F010008B0
:1000B0005F0100085F0100085F0100085F010008A0
:1000C0005F0100085F0100085F0100085F01000890
:1000D0005F010008B10600085F0100085F01000829
:1000E0005F0100085F0100085F0100085F01000870
:1000F0005F0100085F0100085F0100085F01000860
:100100005F0100085F0100085F0100085F0100084F
:100110005F0100085F0100085F0100085F0100083F
:100120005F0100085F0100085F0100085F0100082F
:10013000DFF80CD000F052F800480047B90D000875
:10014000300C00200648804706480047FEE7FEE7DF
:10015000FEE7FEE7FEE7FEE7FEE7FEE7FEE7FEE777
:10016000510600083101000840EA01039B0703D053
:1001700009E008C9121F08C0042AFAD203E011F8E6
:10018000013B00F8013B521EF9D27047D2B201E0A8
:1001900000F8012B491EFBD270470022F6E710B58C
:1001A00013460A4604461946FFF7F0FF204610BDE5
:1001B00030B50B46014600202022012409E021FA37
:1001C00002F59D4205D303FA02F5491B04FA02F534
:1001D0002844151EA2F10102F1DC30BD064C074D8A
:1001E00006E0E06840F0010394E807009847103407
:1001F000AC42F6D3FFF7A0FF6C0E00088C0E00088F
:1002000000BFFEE770472DE9F041024600250026B9
:10021000002000230024002791F803C00CF00F05F4
:1002200091F803C00CF0100CBCF1000F03D091F852
:1002300002C04CEA050591F800C0BCF1000F31D0B6
:10024000146800202BE04FF0010C0CFA00F3B1F819
:1002500000C00CEA03069E4220D183004FF00F0C31
:100260000CFA03F7BC4305FA03FC4CEA040491F8CA
:1002700003C0BCF1280F06D14FF0010C0CFA00FCB2
:10028000C2F814C00AE091F803C0BCF1480F05D1D0
:100290004FF0010C0CFA00FCC2F810C0401C0828FA
:1002A000D1D31460B1F800C0BCF1FF0F34DD546845
:1002B00000202EE000F1080C4FF0010808FA0CF3C2
:1002C000B1F800C00CEA03069E4221D183004FF032
:1002D0000F0C0CFA03F7BC4305FA03FC4CEA0404C8
:1002E00091F803C0BCF1280F05D100F1080C08FA01
:1002F0000CF8C2F8148091F803C0BCF1480F07D184
:1003000000F1080C4FF0010808FA0CF8C2F8108050
:10031000401C0828CED35460BDE8F08101617047CD
:1003200000BFFEE708B50121102000F06DF8FF20A6
:10033000ADF8000010208DF8030003208DF80200B6
:1003400069460448FFF75FFFFF210248FFF7E6FF19
:1003500008BD00000010014000BFFEE7704700002C
:1003600070B5002100230F22C47804B3154C246813
:1003700004F4E064C4F5E064210AC1F10403CA4056
:10038000447804FA03F184781440214309010E4CA7
:100390000678A155047804F01F050124AC400578C7
:1003A0006D11AD0005F1E025C5F8004109E00478C4
:1003B00004F01F050124AC40044D0678761145F881
:1003C000264070BD0CED00E000E400E080E100E0BC
:1003D00002490143024A1160704700000000FA051B
:1003E0000CED00E029B1064A12680243044B1A6082
:1003F00004E0034A12688243014B1A607047000010
:1004000010ED00E07047000029B1064A92690243EE
:10041000044B9A6104E0034A92698243014B9A615A
:10042000704700000010024030B500210022002477
:1004300000232D4D6D6805F00C0121B1042905D074
:10044000082923D105E0294D056022E0274D0560EC
:100450001FE0254D6D6805F47012234D6D6805F49D
:100460008034022505EB92421CB9214D55430560AD
:100470000BE01D4D6D6805F400351DB11C4D554355
:10048000056002E0194D5543056002E0174D056017
:1004900000BF00BF144D6D6805F0F0010909154D4E
:1004A0006B5C0568DD4045600F4D6D6805F4E061EB
:1004B000090A104D6B5C4568DD4085600A4D6D682A
:1004C00005F46051C90A0B4D6B5C4568DD40C560A1
:1004D000054D6D6805F44041890B074D6B5CC5689F
:1004E000B5FBF3F5056130BD0010024000127A0043
:1004F00000093D000000002010000020704710B5EA
:1005000000F002F810BD00000CB500200190009032
:100510003348006840F480303149086000BF3048FB
:10052000006800F4003000900198401C0190009891
:1005300018B90198B0F5A06FF1D12948006800F40E
:10054000003010B10120009001E0002000900098E0
:10055000012843D12348006840F010002149086079
:100560000846006820F0030008600846006840F074
:10057000020008601A484068194948600846406807
:1005800048600846406840F480604860084640681B
:1005900020F47C1048600846406840F4E810486049
:1005A0000846006840F08070086000BF0C48006892
:1005B00000F000700028F9D00948406820F00300DE
:1005C000074948600846406840F00200486000BFA4
:1005D0000348406800F00C000828F9D10CBD000069
:1005E0000010024000200240042808D14FF0E02112
:1005F000096941F004014FF0E022116107E04FF07A
:10060000E021096921F004014FF0E02211617047F7
:100610007047000010B504466FF00400FFF7E4FFD8
:10062000E11704EB5171C1F3C701074A117010467D
:10063000007800EB4001C1EBC0104FF6FF7101EAFA
:10064000C0000249088010BD1400002016000020E0
:1006500010B51348006840F00100114908600846D1
:100660004068104908400E494860084600680E4935
:1006700008400B4908600846006820F480200860A4
:100680000846406820F4FE0048604FF41F00886070
:10069000FFF735FF4FF000600449086010BD00000F
:1006A000001002400000FFF8FFFFF6FE08ED00E03A
:1006B00010B540F225511B4800F0BEF818B119489A
:1006C00000F076F9C4B24021164800F093F8FE2CF1
:1006D00002D1012014490860682C0BD1134800682E
:1006E00040B90120114908600020114908601149F2
:1006F000086010BD162C06D100200C4908600120AE
:100700000C490860F5E709480068012807D1084846
:1007100001680068401C064A10600748445400BF46
:10072000E7E700000038014018000020200000200A
:1007300024000020280000203000002010B586B0E2
:10074000044601210420FFF75FFE01218803FFF723
:100750005BFE01210846FFF757FE4FF40070ADF82D
:10076000140003208DF8160018208DF8170005A935
:100770001E48FFF748FD4FF48060ADF814000420D8
:100780008DF8170005A91948FFF73DFD01940020D9
:10079000ADF80800ADF80A00ADF80C00ADF8100097
:1007A0000C20ADF80E0001A9114800F095F80121C8
:1007B0000F4800F028F840210D4800F01BF80122F6
:1007C00040F225510A4800F061F825208DF800001C
:1007D00003208DF801008DF8020001208DF8030040
:1007E0006846FFF7BDFD06B010BD000000080140DF
:1007F0000038014001F40072B2F5007F00D100BF63
:10080000CA430280704721B1828942F4005282813A
:1008100004E082894DF6FF731A40828170470246D8
:100820000020B1F5007F00D100BF13880B400BB151
:10083000012000E00020704770B50246002400232C
:100840000025002040F66A16B14200D100BFC1F376
:10085000421501F01F03012606FA03F3012D02D110
:100860009689334006E0022D02D1168A334001E01A
:10087000968A33400C12012606FA04F41688344096
:1008800013B10CB1012000E0002070BDF0B50346AB
:10089000002400260025002040F66A17B94200D146
:1008A00000BF1846C1F3421401F01F06012707FAE2
:1008B00006F5012C01D10C3004E0022C01D11030DE
:1008C00000E014301AB107682F43076002E00768A0
:1008D000AF430760F0BD00002DE9F04786B0054644
:1008E0000E460024A24600BFA1460027B08900B1F1
:1008F00000BF2F462C8A4CF6FF700440F08804435A
:100900002C82AC894EF6F3100440B088318908433C
:10091000718908430443AC81AC8A4FF6FF40044020
:10092000B0890443AC8201A8FFF77EFD1F488742CF
:1009300002D1DDF810A001E0DDF80CA0A88900F4D8
:10094000004040B10AEBCA0000EB0A1031684900D0
:10095000B0FBF1F807E00AEBCA0000EB0A103168BF
:100960008900B0FBF1F86420B8FBF0F00401200925
:10097000642101FB1089A88900F4004040B13220B5
:1009800000EBC900B0FBF1F000F00700044308E001
:10099000322000EB09106421B0FBF1F000F00F00F1
:1009A00004432C8106B0BDE8F08700000038014008
:1009B00001468888C0F308007047C1F308028280AE
:1009C000704700BFFEE700000FB4054B10B503A948
:1009D000044A029800F018F810BC5DF814FB0000FF
:1009E000F50C00082C00002002E008C8121F08C106
:1009F000002AFAD170477047002001E001C1121FA0
:100A0000002AFBD1704700002DE9FF4F89B09B46BB
:100A10000446002506E025280BD05A460B9990473E
:100A2000641C6D1C20780028F5D10DB02846BDE867
:100A3000F08F0027B8460122474900E0074314F829
:100A4000013F203B02FA03F00842F7D120782E281C
:100A500019D114F8010F47F004072A280ED06FF0BF
:100A60002F022078A0F1300109290CD808EB880169
:100A700002EB410100EB0108641CF2E70A98641CD8
:100A800050F8048B0A9020780028CED0642808D033
:100A9000692806D075281ED05A460B9990476D1CC0
:100AA00058E00A994FF00A0901C90A91002802DAB0
:100AB00040422D2102E0390504D52B218DF820106C
:100AC000012103E0F90704D02021F7E78A4608AEA8
:100AD0000DE00021FAE70A994FF00A0901C90A91CD
:100AE000F7E74946FFF764FB303106F8011D00289F
:100AF000F7D1ADEB060000F12009780701D44FF0E3
:100B00000108C84502DDA8EB090000E0002080468E
:100B1000002706E008A85A46C05D0B9990476D1C57
:100B20007F1C5745F6DB04E030205A460B9990476E
:100B30006D1CB8F10001A8F10108F5DC05E016F81C
:100B4000010B5A460B9990476D1CB9F10001A9F1B0
:100B50000109F4DC641C65E70928010030B503468F
:100B60000C466820002100BF02E05A5C1044491C7A
:100B7000A142FADB0246C51700EB15652D12A0EB6A
:100B8000052030BD70B5044600261F48016821606D
:100B90008088A0801C488079A0711B48C079E071D2
:100BA0001948007A2072227A1749093104F10900A4
:100BB000FFF7DAFA002508E004F10900405D333858
:100BC000C1B204F1090041556D1C207AA842F3DC42
:100BD000207A09300C49085C84F8D1000B48016880
:100BE0000948FFF7BBFF064694F8D100B04203D195
:100BF00007A0FFF7E9FE03E031460AA0FFF7E4FE95
:100C000000200E49086070BD300000202400002044
:100C100063726320636865636B206973206F6B0A7E
:100C20000000000063726320636865636B20697372
:100C3000206661696C65642025640A002800002034
:100C40000146114A12884A434FF0E0235A610022BC
:100C50009A611A46126942F001021A6100BF4FF010
:100C6000E022106900F001021AB100F48032002A7B
:100C7000F5D04FF0E022126922F001024FF0E0239C
:100C80001A6100229A617047160000200FB410B557
:100C90000024164802990160BDF80C1081809DF86F
:100CA0000E00124988719DF80F00C8719DF8100060
:100CB00008729DF810200DF111010C480930FFF762
:100CC00053FA9DF8100000F109010848FFF746FFAC
:100CD00004469DF810000930044A14549DF8100091
:100CE00009300349086010BC5DF814FB3004002093
:100CF0001C00002070B504460D46E1B20548FFF720
:100D00005CFE00BF80210348FFF789FD0028F9D071
:100D1000204670BD0038014001480068704700005F
:100D20001800002010B506A0FFF74EFE0021042099
:100D3000FFF758FB00210220FFF754FB30BF10BD26
:100D4000BDF8C8EBCFB5CDB3B4FDBBFAC4A3CABDE3
:100D5000200A000000B5E7B0D42132A8FFF71DFA41
:100D600032A8FFF70FFFC22236A96846FFF7FCF949
:100D700032A80FC8FFF78AFF00F048F867B000BD3F
:100D800001480068704700002800002010B50020CE
:100D9000074908604FF47A70FFF752FF01200549B8
:100DA000C1F880014FF47A70FFF74AFF10BD0000D0
:100DB000800122420000224200BF4820FFF72AFCA7
:100DC0004FF4A060FFF704FBFFF7ACFA4FF41650A6
:100DD000FFF7B4FC0FE0FFF79FFF50B1FFF7D6FF1E
:100DE000FFF7CEFF38B104A0FFF7EEFDFFF7B2FF2B
:100DF00001E0FFF797FFEEE772656365697665646A
:100E00002061206672616D650A00000010B5002443
:100E100068211348FFF7D1FD00BF40211048FFF7BC
:100E2000FEFC0128F9D100240CE00E48015D0C48BD
:100E3000FFF7C3FD00BF40210948FFF7F0FC012880
:100E4000F9D1641C084800688442EEDB4FF48061ED
:100E50000448FFF7A2F900200349086010BD000014
:100E600000380140300400201C0000208C0E0008D7
:100E70000000002030000000E8090008BC0E000857
:100E800030000020000C0000F809000800000000FD
:100E9000010203040102030406070809020406080C
:100EA0000000000000000000000000000000000042
:0C0EB00000000000000000000000000036
:0400000508000131BD
:00000001FF
