:020000040800F2
:100000002004002045010008E9020008AD020008B4
:10001000E50200088D010008DF080008000000006C
:10002000000000000000000000000000690400085B
:100030009101000800000000710300087D05000820
:100040005F0100085F0100085F0100085F01000810
:100050005F0100085F0100085F0100085F01000800
:100060005F0100085F0100085F0100085F010008F0
:100070005F0100085F0100085F0100085F010008E0
:100080005F0100085F0100085F0100085F010008D0
:100090005F0100085F0100085F0100085F010008C0
:1000A0005F0100085F0100085F0100085F010008B0
:1000B0005F0100085F0100085F0100085F010008A0
:1000C0005F0100085F0100085F0100085F01000890
:1000D0005F0100081D0600085F0100085F010008BD
:1000E0005F0100085F0100085F0100085F01000870
:1000F0005F0100085F0100085F0100085F01000860
:100100005F0100085F0100085F0100085F0100084F
:100110005F0100085F0100085F0100085F0100083F
:100120005F0100085F0100085F0100085F0100082F
:10013000DFF80CD000F018F80048004789090008E3
:10014000200400200648804706480047FEE7FEE7F7
:10015000FEE7FEE7FEE7FEE7FEE7FEE7FEE7FEE777
:10016000BD05000831010008064C074D06E0E068B7
:1001700040F0010394E8070098471034AC42F6D3EE
:10018000FFF7DAFFB8090008D809000800BFFEE74A
:1001900070472DE9F041024600250026002000238B
:1001A0000024002791F803C00CF00F0591F803C05C
:1001B0000CF0100CBCF1000F03D091F802C04CEA17
:1001C000050591F800C0BCF1000F31D01468002083
:1001D0002BE04FF0010C0CFA00F3B1F800C00CEA70
:1001E00003069E4220D183004FF00F0C0CFA03F758
:1001F000BC4305FA03FC4CEA040491F803C0BCF1CB
:10020000280F06D14FF0010C0CFA00FCC2F814C004
:100210000AE091F803C0BCF1480F05D14FF0010C82
:100220000CFA00FCC2F810C0401C0828D1D314609E
:10023000B1F800C0BCF1FF0F34DD546800202EE09F
:1002400000F1080C4FF0010808FA0CF3B1F800C0F7
:100250000CEA03069E4221D183004FF00F0C0CFAEA
:1002600003F7BC4305FA03FC4CEA040491F803C00D
:10027000BCF1280F05D100F1080C08FA0CF8C2F8FF
:10028000148091F803C0BCF1480F07D100F1080CAD
:100290004FF0010808FA0CF8C2F81080401C08283A
:1002A000CED35460BDE8F0810161704700BFFEE726
:1002B00008B50121102000F05DF8FF20ADF8000026
:1002C00010208DF8030003208DF8020069460448D1
:1002D000FFF75FFFFF210248FFF7E6FF08BD0000C0
:1002E0000010014000BFFEE77047000070B500211C
:1002F00000230F22C47804B3154C246804F4E0648E
:10030000C4F5E064210AC1F10403CA40447804FA48
:1003100003F184781440214309010E4C0678A1555D
:10032000047804F01F050124AC4005786D11AD0080
:1003300005F1E025C5F8004109E0047804F01F0547
:100340000124AC40044D0678761145F8264070BD76
:100350000CED00E000E400E080E100E00249014330
:10036000024A1160704700000000FA050CED00E041
:100370007047000029B1064A92690243044B9A6112
:1003800004E0034A92698243014B9A61704700007E
:100390000010024030B500210022002400232D4D22
:1003A0006D6805F00C0121B1042905D0082923D17D
:1003B00005E0294D056022E0274D05601FE0254D31
:1003C0006D6805F47012234D6D6805F480340225C4
:1003D00005EB92421CB9214D554305600BE01D4DC4
:1003E0006D6805F400351DB11C4D5543056002E0F4
:1003F000194D5543056002E0174D056000BF00BF71
:10040000144D6D6805F0F0010909154D6B5C056828
:10041000DD4045600F4D6D6805F4E061090A104D3F
:100420006B5C4568DD4085600A4D6D6805F4605180
:10043000C90A0B4D6B5C4568DD40C560054D6D68B4
:1004400005F44041890B074D6B5CC568B5FBF3F5BE
:10045000056130BD0010024000127A0000093D0025
:100460000000002010000020704710B500F002F8D6
:1004700010BD00000CB500200190009033480068CA
:1004800040F480303149086000BF3048006800F413
:10049000003000900198401C0190009818B9019814
:1004A000B0F5A06FF1D12948006800F4003010B118
:1004B0000120009001E0002000900098012843D125
:1004C0002348006840F01000214908600846006891
:1004D00020F0030008600846006840F00200086051
:1004E0001A4840681949486008464068486008460C
:1004F000406840F4806048600846406820F47C1002
:1005000048600846406840F4E810486008460068C3
:1005100040F08070086000BF0C48006800F0007078
:100520000028F9D00948406820F0030007494860D6
:100530000846406840F00200486000BF0348406839
:1005400000F00C000828F9D10CBD0000001002409A
:1005500000200240042808D14FF0E021096941F051
:1005600004014FF0E022116107E04FF0E02109693A
:1005700021F004014FF0E022116170477047000044
:1005800010B504466FF00400FFF7E4FFE11704EB39
:100590005171C1F3C701074A11701046007800EB92
:1005A0004001C1EBC0104FF6FF7101EAC0000249E3
:1005B000088010BD140000201600002010B513485C
:1005C000006840F001001149086008464068104981
:1005D00008400E494860084600680E4908400B492B
:1005E00008600846006820F48020086008464068DB
:1005F00020F4FE0048604FF41F008860FFF735FFCD
:100600004FF000600449086010BD00000010024077
:100610000000FFF8FFFFF6FE08ED00E010B540F225
:1006200025510C4800F096F870B10A4800F04EF9D8
:10063000C4B22146074800F04EF900BF40210548EA
:1006400000F07BF80128F9D14021024800F060F861
:1006500010BD00000038014010B586B004460121ED
:100660000420FFF787FE01218803FFF783FE0121A5
:100670000846FFF77FFE4FF40070ADF8140003202A
:100680008DF8160018208DF8170005A91E48FFF7F1
:1006900080FD4FF48060ADF8140004208DF8170041
:1006A00005A91948FFF775FD01940020ADF8080071
:1006B000ADF80A00ADF80C00ADF810000C20ADF854
:1006C0000E0001A9114800F095F801210F4800F033
:1006D00028F840210D4800F01BF8012240F2255176
:1006E0000A4800F061F825208DF8000003208DF8FD
:1006F00001008DF8020001208DF803006846FFF725
:10070000F5FD06B010BD00000008014000380140B2
:1007100001F40072B2F5007F00D100BFCA4302802D
:10072000704721B1828942F40052828104E08289BB
:100730004DF6FF731A408281704702460020B1F5E2
:10074000007F00D100BF13880B400BB1012000E0F7
:100750000020704770B502460024002300250020C9
:1007600040F66A16B14200D100BFC1F3421501F054
:100770001F03012606FA03F3012D02D196893340A7
:1007800006E0022D02D1168A334001E0968A3340FA
:100790000C12012606FA04F41688344013B10CB189
:1007A000012000E0002070BDF0B5034600240026C3
:1007B0000025002040F66A17B94200D100BF184654
:1007C000C1F3421401F01F06012707FA06F5012CB8
:1007D00001D10C3004E0022C01D1103000E01430C3
:1007E0001AB107682F43076002E00768AF4307604C
:1007F000F0BD00002DE9F04786B005460E46002406
:10080000A24600BFA1460027B08900B100BF2F4615
:100810002C8A4CF6FF700440F08804432C82AC898B
:100820004EF6F3100440B0883189084371890843BB
:100830000443AC81AC8A4FF6FF400440B0890443C6
:10084000AC8201A8FFF7A6FD1F48874202D1DDF860
:1008500010A001E0DDF80CA0A88900F4004040B130
:100860000AEBCA0000EB0A1031684900B0FBF1F84E
:1008700007E00AEBCA0000EB0A1031688900B0FB00
:10088000F1F86420B8FBF0F004012009642101FBB9
:100890001089A88900F4004040B1322000EBC90063
:1008A000B0FBF1F000F00700044308E0322000EB59
:1008B00009106421B0FBF1F000F00F0004432C811B
:1008C00006B0BDE8F0870000003801400146888886
:1008D000C0F308007047C1F308028280704700BF70
:1008E000FEE702E008C8121F08C1002AFAD17047CB
:1008F0007047002001E001C1121F002AFBD17047A0
:100900000146114A12884A434FF0E0235A610022FF
:100910009A611A46126942F001021A6100BF4FF053
:10092000E022106900F001021AB100F48032002ABE
:10093000F5D04FF0E022126922F001024FF0E023DF
:100940001A6100229A617047160000200148006871
:1009500070470000180000207047000010B500200C
:10096000074908604FF47A70FFF7CAFF0120054974
:10097000C1F880014FF47A70FFF7C2FF10BD00008C
:10098000800122420000224200BF4820FFF7F8FD0C
:100990004FF4A060FFF7E2FCFFF78AFC4FF416501B
:1009A000FFF75AFE06E0FFF7D1FF18B1FFF7D6FFB9
:1009B000FFF7D2FFF7E70000D80900080000002089
:1009C0001C000000E2080008F40900081C000020D8
:1009D00004040000F2080008000000000102030403
:1009E00001020304060708090204060800000000CB
:0409F0000000000003
:0400000508000131BD
:00000001FF
